:100000000C9435000C945D000C945D000C945D0024
:100010000C945D000C945D000C945D000C945D00EC
:100020000C945D000C945D000C945D000C945D00DC
:100030000C945D000C945D000C945D000C945D00CC
:100040000C9480020C945D000C945D000C945D0097
:100050000C945D000C945D000C945D000C945D00AC
:100060000C94CA020C945D00F80311241FBECFEF5C
:10007000D8E0DEBFCDBF11E0A0E0B1E0E8E6FAE0F5
:1000800002C005900D92AC32B107D9F721E0ACE285
:10009000B1E001C01D92A33EB207E1F710E0C5E355
:1000A000D0E004C02197FE010E942705C433D10788
:1000B000C9F70E9423040C9432050C940000CF92DF
:1000C000DF92EF92FF920F931F93CF93DF936C0118
:1000D0007A018B01C0E0D0E0CE15DF0589F0D801B0
:1000E0006D918D01D601ED91FC910190F081E02D93
:1000F000C6010995892B11F47E0102C02196ECCF2F
:10010000C701DF91CF911F910F91FF90EF90DF908A
:10011000CF9008953FB7F894809175019091760142
:10012000A0917701B091780126B5A89B05C02F3F1B
:1001300019F00196A11DB11D3FBFBA2FA92F982F0D
:100140008827820F911DA11DB11DBC01CD0142E088
:10015000660F771F881F991F4A95D1F708958F92D0
:100160009F92AF92BF92CF92DF92EF92FF926B017C
:100170007C010E948A004B015C01C114D104E1049E
:10018000F104F1F00E948A00DC01CB018819990981
:10019000AA09BB09883E9340A105B10570F321E08F
:1001A000C21AD108E108F10888EE880E83E0981E93
:1001B000A11CB11CC114D104E104F10419F7DDCF75
:1001C000FF90EF90DF90CF90BF90AF909F908F9077
:1001D000089585ED8093BC008091BC0084FDFCCF28
:1001E0001092A301089540914F01262F30E0240F73
:1001F000311D21323105DCF42091A3012430C9F4F2
:10020000FC0180E090E0861758F430914F01219175
:10021000DC01A35DBE4FA30FB11D2C930196F3CF5C
:1002200080914F01680F60934F0180E0089581E055
:10023000089582E0089508958FEF9FEF08958FEF5E
:100240009FEF089580912C0190E0919581959109FF
:100250000895CF92DF92EF92FF920F931F93CF9367
:10026000DF937C01262F972F8A018091C701882375
:1002700091F0C62FD72F6E01C40ED51ECC15DD050B
:1002800071F06991D701ED91FC910190F081E02D21
:10029000C7010995F3CF642F822F0E94F300C80194
:1002A000DF91CF911F910F91FF90EF90DF90CF9052
:1002B0000895CF93DF931F92CDB7DEB76983209166
:1002C000C7012223D1F02091C401203240F021E067
:1002D00030E0FC013383228380E090E015C0809100
:1002E000C501E82FF0E0EC55FE4F998190838F5FB8
:1002F0008093C5018093C40105C061E0CE010196E1
:100300000E94F30081E090E00F90DF91CF9108957B
:100310000F931F93CF93DF938B01FC01C481D0E037
:10032000D595C79581E08093C701C093C60110920F
:10033000C5011092C401FB01608188EC91E00E942C
:100340005901F801618188EC91E00E945901809186
:10035000C401813208F047C09091A3019111FCCFF4
:1003600092E09093A30191E09093A2019FEF90936C
:10037000A1011092A00180939F01A4EAB1E02FE7B0
:1003800031E0F9019E2F921B981718F49D919193DB
:10039000F9CF10927E0180917E01CC0FDD1FC82B1A
:1003A000C0937E0180917D01813061F410927D01C6
:1003B00080917E018093BB008091BC0083FDF8CFCB
:1003C00085EC01C085EE8093BC008091A301823052
:1003D000E1F38091A1018F3F31F08091A101803242
:1003E00011F08091A1011092C5011092C4011092E8
:1003F000C701DF91CF911F910F910895CF93DF93A4
:1004000000D0CDB7DEB720E429836A83BE016F5FD9
:100410007F4F0E94880181E090E00F900F90DF9164
:10042000CF910895089580E090E008950E942D05F1
:100430006115710579F0FB0101900020E9F7319712
:10044000AF01461B570BDC01ED91FC910280F3815B
:10045000E02D099480E090E008954F925F926F92B2
:100460007F92EF92FF920F931F93CF93DF93CDB7BD
:10047000DEB7A1970FB6F894DEBF0FBECDBF7C01EB
:10048000FA01CB0119A2223008F42AE08E010F5D97
:100490001F4F422E512C612C712CBF01A3019201E0
:1004A0000E940505F901CA01015011096A3014F4CE
:1004B000605D01C0695CD8016C93232B242B252B34
:1004C00061F7B801C7010E941802A1960FB6F8940F
:1004D000DEBF0FBECDBFDF91CF911F910F91FF9077
:1004E000EF907F906F905F904F9008956EE171E074
:1004F0000E94180268EE73E080E090E00C94AF0078
:100500001F920F920FB60F9211242F933F938F9348
:100510009F93AF93BF938091790190917A01A091BD
:100520007B01B0917C013091740123E0230F2D37C2
:1005300020F40196A11DB11D05C026E8230F0296E7
:10054000A11DB11D209374018093790190937A01CC
:10055000A0937B01B0937C0180917501909176010D
:10056000A0917701B09178010196A11DB11D8093F2
:10057000750190937601A0937701B0937801BF91B4
:10058000AF919F918F913F912F910F900FBE0F9040
:100590001F9018951F920F920FB60F9211242F9350
:1005A0003F934F935F936F937F938F939F93AF93FB
:1005B000BF93EF93FF938091B900887F803609F451
:1005C0009CC068F5883209F45BC090F4803109F46E
:1005D00054C038F4882309F4F6C0883009F44DC0BB
:1005E000F6C0883109F44CC0803209F45DC0EFC018
:1005F000803409F468C048F4803309F455C0883366
:1006000009F0E5C08093A101D8C0803509F44FC03E
:10061000883509F45DC0883409F0D9C0D6C088395E
:1006200009F4C7C0A8F4883709F467C038F48836DD
:1006300009F463C0803709F460C0C9C0883809F480
:10064000B8C0803909F45FC0803809F0C0C05BC011
:10065000803B09F486C038F4803A09F466C0883AD1
:1006600009F47FC0B4C0803C09F4A7C0883C09F4F9
:10067000A4C0883B09F48AC0AAC080917E0110C042
:100680009091A00180919F01981770F5E091A001D1
:1006900081E08E0F8093A001F0E0E158FE4F808151
:1006A0008093BB0085EC86C08093A1018EC0E09151
:1006B000A00181E08E0F8093A0018091BB00F0E04B
:1006C000E158FE4F80839091A00180919F016EC000
:1006D000E091A00181E08E0F8093A0018091BB008A
:1006E000F0E0E158FE4F80838091A20181116DC03E
:1006F00081E080937D0184EA61C083E08093A3015F
:1007000010927301CFCF80917301803208F051C0F5
:10071000E091730181E08E0F809373018091BB00A3
:10072000F0E0ED5AFE4F8083BDCF85EC8093BC0096
:100730001092A30180917301803230F4E091730133
:10074000F0E0ED5AFE4F10826091730170E0E0918D
:100750005101F091520183E591E0099510927301E6
:1007600036C084E08093A3011092500110924F0193
:10077000E0914D01F0914E01099580914F01811159
:1007800005C081E080934F0110922D01E09150014E
:1007900081E08E0F80935001F0E0E35DFE4F808199
:1007A0008093BB009091500180914F01981708F4FD
:1007B00079CF85E88093BC000AC085EC8093BC00AB
:1007C0001092A30104C01092A1010E94E900FF91C0
:1007D000EF91BF91AF919F918F917F916F915F91B9
:1007E0004F913F912F910F900FBE0F901F90189532
:1007F000E8ECF1E01382128288EE93E0A0E0B0E032
:1008000084839583A683B78384E091E0918380837A
:10081000EEEDF1E01382128286E191E09183808314
:100820002CE72483E9EDF1E0138212829183808327
:100830002EE72483E4EDF1E013821282918380831A
:100840008CE684830895CF93DF9300D0CDB7DEB7D5
:10085000789484B5826084BD84B5816084BD85B59B
:10086000826085BD85B5816085BD80916E008160A7
:1008700080936E001092810080918100826080934D
:10088000810080918100816080938100809180004F
:100890008160809380008091B10084608093B1007A
:1008A0008091B00081608093B00080917A00846074
:1008B00080937A0080917A00826080937A008091A0
:1008C0007A00816080937A0080917A0080688093BA
:1008D0007A001092C1008EED91E00E94760289EDBF
:1008E00091E00E94760284ED91E00E94760210EC85
:1008F00088EEC82E83E0D82EE12CF12C90ED492E05
:1009000097E0592E612C712C20EA822E2FE0922E36
:10091000A12CB12C30E0232E30E0332E00E80983E7
:100920001A83BE016F5F7F4F8EED91E00E948801B8
:100930002FB7F8946091790170917A0180917B01D1
:1009400090917C012FBFA70196010E940505BA0175
:10095000A9012AE08EED91E00E942D0264E670E08C
:1009600080E090E00E94AF0009831A83BE016F5FB0
:100970007F4F89ED91E00E9488012FB7F894609134
:10098000790170917A0180917B0190917C012FBF58
:10099000A30192010E940505BA01A9012AE089ED8F
:1009A00091E00E942D0264E670E080E090E00E94F9
:1009B000AF0009831A83BE016F5F7F4F84ED91E022
:1009C0000E9488012FB7F8946091790170917A01A3
:1009D00080917B0190917C012FBFA50194010E9421
:1009E0000505BA01A9012AE084ED91E00E942D02DB
:1009F00064E670E080E090E00E94AF0021143104D2
:100A000009F48DCF0E9400008ACFA1E21A2EAA1B02
:100A1000BB1BFD010DC0AA1FBB1FEE1FFF1FA217AE
:100A2000B307E407F50720F0A21BB30BE40BF50BAB
:100A3000661F771F881F991F1A9469F76095709534
:100A4000809590959B01AC01BD01CF010895EE0FFB
:100A5000FF1F0590F491E02D099481E090E0F89457
:080A60000C943205F894FFCF5D
:100A6800000000005901290113021B0122011F0186
:100A78001C0100000000FE015F00130212026865FD
:0C0A88006C6C6F2C20776F726C64210086
:00000001FF
